:1000000012C019C018C017C016C015C014C013C044
:1000100012C011C010C00FC00EC00DC00CC00BC06C
:100020000AC009C008C011241FBECFE5D4E0DEBF5E
:10003000CDBF7DD0B5C1E4CF0F931F93CF93DF9396
:10004000F801A1E0B0E0ED0101C0CC0F4A95EAF75C
:100050004C2F3C2F409501C0AA0F6A95EAF75A2F02
:10006000509567E070E0082F10E0C801062E02C02E
:10007000959587950A94E2F780FF22C080818A2BAC
:1000800080839081932B90830000908194239083B0
:100090006150710950F7408181E090E0BC0101C0DE
:1000A000660F2A95EAF7262F462B408300008081B1
:1000B000209528232083DF91CF911F910F910895E0
:1000C00080818523DDCFEF92FF920F931F93CF9313
:1000D000DF93D701E1E0F0E0EF0101C0CC0F8A959A
:1000E000EAF78C2F80959C9189238C93A5DFDF9173
:1000F000CF911F910F91FF90EF9008958830910557
:1001000038F48E529E4F8F939F93089581E088BB61
:10011000089583E0FCCF82E0FACF86E0F8CF84E058
:10012000F6CF8CE0F4CF88E0F2CF89E0F0CFCDB706
:10013000DEB72C970FB6F894DEBF0FBECDBF84B3E9
:100140008F6384BB81B38F6381BB8FE087BBFF2448
:10015000FA94FC82FB82FA82F98205E310E022E045
:1001600041E060E08FEF68DF25E044E063E08B81F1
:1001700063DF02E322E041E060E08A815DDF25E0A9
:1001800044E063E0898158DF2FE38DE093E0215064
:1001900080409040E1F700C000001C821B821A8260
:1001A000198205E322E041E060E080E045DF25E0E0
:1001B00044E063E08B8140DF02E322E041E060E065
:1001C0008A813ADF25E044E063E0898135DF2FE36F
:1001D0008DE093E0215080409040E1F700C00000A6
:1001E000FC82FB82FA82F98205E322E041E060E0D2
:1001F0008FEF22DF25E044E063E08B811DDF02E327
:1002000022E041E060E08A8117DF25E044E063E01E
:10021000898112DFBE016F5F7F4FAE014E5F5F4F7E
:100220009E012D5F3F4FCE0104966D837E834F83E9
:10023000588729873A878B879C873F2C812C912C64
:1002400080E2A82EB12C24013201C30157DFC30183
:10025000019668E070E07DD03C012FEF421A520A0F
:10026000C20160E971E075D06C01892BB1F489E1BC
:10027000A816B1040CF441C0EB84FC8405E310E043
:1002800022E041E060E0C4011EDF640146018FEF1F
:10029000881A980A91E0A91AB10881EE94E00197B2
:1002A000F1F700C0000090EE49169EE2590669F68B
:1002B0003C823B823A82398205E310E022E041E051
:1002C00060E08FEFB9DE25E044E063E08B81B4DECF
:1002D00002E322E041E060E08A81AEDE25E044E016
:1002E00063E08981A9DE2FE382E49FE02150804012
:1002F0009040E1F700C00000A1CF91E1A916B10440
:100300006CF028E1A216B10409F06401E984FA84D2
:1003100005E310E025E044E063E011C088E0A816A2
:10032000B10481F07CF090E1A916B10409F06401F8
:10033000EF80F88402E310E022E041E060E0C601D3
:10034000C2DEA4CF09F06401ED80FE8002E310E07C
:10035000E1CF97FB072E16F4009406D077FD08D066
:100360000BD007FC05D03EF4909581959F4F0895E2
:10037000709561957F4F0895AA1BBB1B51E107C083
:10038000AA1FBB1FA617B70710F0A61BB70B881F25
:10039000991F5A95A9F780959095BC01CD010895B4
:1003A000F894FFCFB3CEB5CEB6CEB7CEB8CEB9CED9
:0403B000BACEBBCE38
:00000001FF
