:1000000012C019C018C017C016C015C014C013C044
:1000100012C011C010C00FC00EC00DC00CC00BC06C
:100020000AC009C008C011241FBECFE5D4E0DEBF5E
:10003000CDBF1AD027C0E4CF883038F4E82FF0E0E5
:10004000EC5BFF4F099481E088BB089583E0FCCF0F
:1000500082E0FACF86E0F8CF84E0F6CF8CE0F4CFF0
:1000600088E0F2CF89E0F0CF8FE087BBC0E08C2F33
:10007000E3DFCF5FC77083EC99E00197F1F700C031
:100080000000F5CFF894FFCFDECFE0CFE1CFE2CF95
:08009000E3CFE4CFE5CFE6CF9A
:00000001FF
