:1000000012C019C018C017C016C015C014C013C044
:1000100012C011C010C00FC00EC00DC00CC00BC06C
:100020000AC009C008C011241FBECFE5D4E0DEBF5E
:10003000CDBF02D044C0E4CF87B38C6287BB88B306
:10004000837D88BB80E58DB91FB8779BFECFC29AB0
:100050002AE12A95F1F700C0C2983FEF41EE84E013
:10006000315040408040E1F700C000008FEF8FB971
:10007000779BFECFC29A9AE19A95F1F700C0C29899
:100080002FEF31EE44E0215030404040E1F700C016
:10009000000080E090E08FB9779BFECFC29AC298B3
:1000A0002FE738E341E0215030404040E1F700C005
:1000B00000000196811521E0920769F7EACFF894D4
:0200C000FFCF70
:00000001FF
