:1000000012C019C018C017C016C015C014C013C044
:1000100012C011C010C00FC00EC00DC00CC00BC06C
:100020000AC009C008C011241FBECFE5D4E0DEBF5E
:10003000CDBF1DD03AC0E4CF27E030E090E0AC0166
:10004000022E02C0559547950A94E2F740FF0DC075
:10005000C39AC49AE9EFF0E03197F1F700C00000CD
:10006000C4982150310958F70895C398F2CF87B347
:100070008C6187BBC2988FEFDFDFC29A2FE38DE0E0
:1000800093E0215080409040E1F700C00000C2980A
:1000900080E0D2DFC29A2FE38DE093E021508040D0
:0E00A0009040E1F700C00000E5CFF894FFCFDC
:00000001FF
